{
  "_format": "hh-sol-artifact-1",
  "contractName": "ChainlinkAdapter",
  "sourceName": "contracts/rate/ChainlinkAdapter.sol",
  "abi": [
    {
      "anonymous": false,
      "inputs": [
        {
          "indexed": false,
          "internalType": "uint256",
          "name": "",
          "type": "uint256"
        }
      ],
      "name": "OracleCreated",
      "type": "event"
    },
    {
      "inputs": [
        {
          "internalType": "uint256",
          "name": "idx",
          "type": "uint256"
        }
      ],
      "name": "getLatestPrice",
      "outputs": [
        {
          "internalType": "int256",
          "name": "price",
          "type": "int256"
        },
        {
          "internalType": "uint256",
          "name": "updatedAt",
          "type": "uint256"
        }
      ],
      "stateMutability": "view",
      "type": "function"
    },
    {
      "inputs": [
        {
          "internalType": "address",
          "name": "aggregatorAddress",
          "type": "address"
        }
      ],
      "name": "insertOracle",
      "outputs": [],
      "stateMutability": "nonpayable",
      "type": "function"
    },
    {
      "inputs": [
        {
          "internalType": "uint256",
          "name": "",
          "type": "uint256"
        }
      ],
      "name": "oracles",
      "outputs": [
        {
          "internalType": "contract AggregatorV3Interface",
          "name": "",
          "type": "address"
        }
      ],
      "stateMutability": "view",
      "type": "function"
    }
  ],
  "bytecode": "0x6080604052600060015534801561001557600080fd5b506103c7806100256000396000f3fe608060405234801561001057600080fd5b50600436106100415760003560e01c80635352bdcb146100465780635b69a7d81461005b578063b94fe917146100a1575b600080fd5b61005961005436600461025d565b6100c9565b005b61008461006936600461028d565b6000602081905290815260409020546001600160a01b031681565b6040516001600160a01b0390911681526020015b60405180910390f35b6100b46100af36600461028d565b61016b565b60408051928352602083019190915201610098565b60018054600091826100da836102a6565b91905055905061010e6040518060400160405280600c81526020016b6f7261636c6549443a20257360a01b815250826101f3565b6000818152602081815260409182902080546001600160a01b0319166001600160a01b03861617905590518281527f188d637ebf56072b89f9cd4361c54621293d98deb884a0c2b06f8cf395f2cdf7910160405180910390a15050565b600081815260208190526040808220548151633fabe5a360e21b8152915183926001600160a01b039092169163feaf968c9160048083019260a09291908290030181865afa1580156101c1573d6000803e3d6000fd5b505050506040513d601f19601f820116820180604052508101906101e591906102ec565b509196919550909350505050565b610238828260405160240161020992919061033c565b60408051601f198184030181529190526020810180516001600160e01b0316632d839cb360e21b17905261023c565b5050565b80516a636f6e736f6c652e6c6f67602083016000808483855afa5050505050565b60006020828403121561026f57600080fd5b81356001600160a01b038116811461028657600080fd5b9392505050565b60006020828403121561029f57600080fd5b5035919050565b6000600182016102c657634e487b7160e01b600052601160045260246000fd5b5060010190565b805169ffffffffffffffffffff811681146102e757600080fd5b919050565b600080600080600060a0868803121561030457600080fd5b61030d866102cd565b9450602086015193506040860151925060608601519150610330608087016102cd565b90509295509295909350565b604081526000835180604084015260005b8181101561036a576020818701810151606086840101520161034d565b506000606082850101526060601f19601f830116840101915050826020830152939250505056fea2646970667358221220cf02108ede0efcc1c2df9ca3272924d12068b495925a09ea9c3d56eae3add07b64736f6c63430008110033",
  "linkReferences": {},
  "deployedLinkReferences": {}
}