{
  "_format": "hh-sol-artifact-1",
  "contractName": "ChainlinkRate",
  "sourceName": "contracts/rate/ChainlinkRate.sol",
  "abi": [
    {
      "inputs": [
        {
          "internalType": "address",
          "name": "aggregatorAddress",
          "type": "address"
        }
      ],
      "stateMutability": "nonpayable",
      "type": "constructor"
    },
    {
      "inputs": [],
      "name": "getLatestPrice",
      "outputs": [
        {
          "internalType": "int256",
          "name": "price",
          "type": "int256"
        }
      ],
      "stateMutability": "view",
      "type": "function"
    },
    {
      "inputs": [],
      "name": "priceFeed",
      "outputs": [
        {
          "internalType": "contract AggregatorV3Interface",
          "name": "",
          "type": "address"
        }
      ],
      "stateMutability": "view",
      "type": "function"
    }
  ],
  "bytecode": "0x60a060405234801561001057600080fd5b5060405161025838038061025883398101604081905261002f91610040565b6001600160a01b0316608052610070565b60006020828403121561005257600080fd5b81516001600160a01b038116811461006957600080fd5b9392505050565b6080516101c86100906000396000818160400152609901526101c86000f3fe608060405234801561001057600080fd5b50600436106100365760003560e01c8063741bef1a1461003b5780638e15f4731461007f575b600080fd5b6100627f000000000000000000000000000000000000000000000000000000000000000081565b6040516001600160a01b0390911681526020015b60405180910390f35b610087610095565b604051908152602001610076565b60007f00000000000000000000000000000000000000000000000000000000000000006001600160a01b031663feaf968c6040518163ffffffff1660e01b815260040160a060405180830381865afa1580156100f5573d6000803e3d6000fd5b505050506040513d601f19601f820116820180604052508101906101199190610142565b5091949350505050565b805169ffffffffffffffffffff8116811461013d57600080fd5b919050565b600080600080600060a0868803121561015a57600080fd5b61016386610123565b945060208601519350604086015192506060860151915061018660808701610123565b9050929550929590935056fea2646970667358221220899f2ffc97018c97e0b6415c2f53f5f1c74ad75f4f97d6b227fd990c39b3236464736f6c63430008110033",
  "linkReferences": {},
  "deployedLinkReferences": {}
}