{
  "_format": "hh-sol-artifact-1",
  "contractName": "DigitalPayoff",
  "sourceName": "contracts/payoff/DigitalPayoff.sol",
  "abi": [
    {
      "inputs": [
        {
          "internalType": "int256",
          "name": "_strike",
          "type": "int256"
        },
        {
          "internalType": "bool",
          "name": "_isCall",
          "type": "bool"
        },
        {
          "internalType": "contract IRatePlugin",
          "name": "_ratePlugin",
          "type": "address"
        }
      ],
      "stateMutability": "nonpayable",
      "type": "constructor"
    },
    {
      "inputs": [
        {
          "internalType": "uint256",
          "name": "a",
          "type": "uint256"
        },
        {
          "internalType": "uint256",
          "name": "b",
          "type": "uint256"
        }
      ],
      "name": "execute",
      "outputs": [
        {
          "internalType": "uint256",
          "name": "",
          "type": "uint256"
        },
        {
          "internalType": "uint256",
          "name": "",
          "type": "uint256"
        }
      ],
      "stateMutability": "view",
      "type": "function"
    },
    {
      "inputs": [],
      "name": "isCall",
      "outputs": [
        {
          "internalType": "bool",
          "name": "",
          "type": "bool"
        }
      ],
      "stateMutability": "view",
      "type": "function"
    },
    {
      "inputs": [],
      "name": "ratePlugin",
      "outputs": [
        {
          "internalType": "contract IRatePlugin",
          "name": "",
          "type": "address"
        }
      ],
      "stateMutability": "view",
      "type": "function"
    },
    {
      "inputs": [],
      "name": "strike",
      "outputs": [
        {
          "internalType": "int256",
          "name": "",
          "type": "int256"
        }
      ],
      "stateMutability": "view",
      "type": "function"
    }
  ],
  "bytecode": "0x60e060405234801561001057600080fd5b5060405161040238038061040283398101604081905261002f9161004b565b60a092909252151560c0526001600160a01b031660805261009f565b60008060006060848603121561006057600080fd5b835192506020840151801515811461007757600080fd5b60408501519092506001600160a01b038116811461009457600080fd5b809150509250925092565b60805160a05160c0516103146100ee6000396000818160c2015281816101b4015261020701526000818160f9015281816101dc01526102300152600081816056015261013001526103146000f3fe608060405234801561001057600080fd5b506004361061004c5760003560e01c806311c21485146100515780635601eaea146100955780636d636478146100bd578063ad8f5008146100f4575b600080fd5b6100787f000000000000000000000000000000000000000000000000000000000000000081565b6040516001600160a01b0390911681526020015b60405180910390f35b6100a86100a336600461027c565b610129565b6040805192835260208301919091520161008c565b6100e47f000000000000000000000000000000000000000000000000000000000000000081565b604051901515815260200161008c565b61011b7f000000000000000000000000000000000000000000000000000000000000000081565b60405190815260200161008c565b60008060007f00000000000000000000000000000000000000000000000000000000000000006001600160a01b0316638e15f4736040518163ffffffff1660e01b8152600401602060405180830381865afa15801561018c573d6000803e3d6000fd5b505050506040513d601f19601f820116820180604052508101906101b0919061029e565b90507f000000000000000000000000000000000000000000000000000000000000000080156101ff57507f00000000000000000000000000000000000000000000000000000000000000008112155b8061025257507f000000000000000000000000000000000000000000000000000000000000000015801561025257507f000000000000000000000000000000000000000000000000000000000000000081125b156102635783859250925050610275565b600061026f85876102b7565b92509250505b9250929050565b6000806040838503121561028f57600080fd5b50508035926020909101359150565b6000602082840312156102b057600080fd5b5051919050565b808201808211156102d857634e487b7160e01b600052601160045260246000fd5b9291505056fea264697066735822122087f97a85075c837e4e6c20a68d02b4cdf8684081f45278f0513362bc8b33e35a64736f6c63430008110033",
  "linkReferences": {},
  "deployedLinkReferences": {}
}