{
  "_format": "hh-sol-artifact-1",
  "contractName": "VyperOTC",
  "sourceName": "contracts/VyperOTC.sol",
  "abi": [
    {
      "inputs": [
        {
          "internalType": "contract IERC20",
          "name": "_collateral",
          "type": "address"
        },
        {
          "internalType": "contract IPayoffPlugin",
          "name": "_payoff",
          "type": "address"
        },
        {
          "internalType": "uint256",
          "name": "_depositStart",
          "type": "uint256"
        },
        {
          "internalType": "uint256",
          "name": "_depositEnd",
          "type": "uint256"
        },
        {
          "internalType": "uint256",
          "name": "_settleStart",
          "type": "uint256"
        },
        {
          "internalType": "uint256",
          "name": "_longRequiredAmount",
          "type": "uint256"
        },
        {
          "internalType": "uint256",
          "name": "_shortRequiredAmount",
          "type": "uint256"
        }
      ],
      "stateMutability": "nonpayable",
      "type": "constructor"
    },
    {
      "anonymous": false,
      "inputs": [
        {
          "indexed": true,
          "internalType": "address",
          "name": "account",
          "type": "address"
        },
        {
          "indexed": true,
          "internalType": "address",
          "name": "operator",
          "type": "address"
        },
        {
          "indexed": false,
          "internalType": "bool",
          "name": "approved",
          "type": "bool"
        }
      ],
      "name": "ApprovalForAll",
      "type": "event"
    },
    {
      "anonymous": false,
      "inputs": [
        {
          "indexed": true,
          "internalType": "address",
          "name": "operator",
          "type": "address"
        },
        {
          "indexed": true,
          "internalType": "address",
          "name": "from",
          "type": "address"
        },
        {
          "indexed": true,
          "internalType": "address",
          "name": "to",
          "type": "address"
        },
        {
          "indexed": false,
          "internalType": "uint256[]",
          "name": "ids",
          "type": "uint256[]"
        },
        {
          "indexed": false,
          "internalType": "uint256[]",
          "name": "values",
          "type": "uint256[]"
        }
      ],
      "name": "TransferBatch",
      "type": "event"
    },
    {
      "anonymous": false,
      "inputs": [
        {
          "indexed": true,
          "internalType": "address",
          "name": "operator",
          "type": "address"
        },
        {
          "indexed": true,
          "internalType": "address",
          "name": "from",
          "type": "address"
        },
        {
          "indexed": true,
          "internalType": "address",
          "name": "to",
          "type": "address"
        },
        {
          "indexed": false,
          "internalType": "uint256",
          "name": "id",
          "type": "uint256"
        },
        {
          "indexed": false,
          "internalType": "uint256",
          "name": "value",
          "type": "uint256"
        }
      ],
      "name": "TransferSingle",
      "type": "event"
    },
    {
      "anonymous": false,
      "inputs": [
        {
          "indexed": false,
          "internalType": "string",
          "name": "value",
          "type": "string"
        },
        {
          "indexed": true,
          "internalType": "uint256",
          "name": "id",
          "type": "uint256"
        }
      ],
      "name": "URI",
      "type": "event"
    },
    {
      "inputs": [
        {
          "internalType": "address",
          "name": "account",
          "type": "address"
        },
        {
          "internalType": "uint256",
          "name": "id",
          "type": "uint256"
        }
      ],
      "name": "balanceOf",
      "outputs": [
        {
          "internalType": "uint256",
          "name": "",
          "type": "uint256"
        }
      ],
      "stateMutability": "view",
      "type": "function"
    },
    {
      "inputs": [
        {
          "internalType": "address[]",
          "name": "accounts",
          "type": "address[]"
        },
        {
          "internalType": "uint256[]",
          "name": "ids",
          "type": "uint256[]"
        }
      ],
      "name": "balanceOfBatch",
      "outputs": [
        {
          "internalType": "uint256[]",
          "name": "",
          "type": "uint256[]"
        }
      ],
      "stateMutability": "view",
      "type": "function"
    },
    {
      "inputs": [],
      "name": "claim",
      "outputs": [],
      "stateMutability": "nonpayable",
      "type": "function"
    },
    {
      "inputs": [],
      "name": "collateral",
      "outputs": [
        {
          "internalType": "contract IERC20",
          "name": "",
          "type": "address"
        }
      ],
      "stateMutability": "view",
      "type": "function"
    },
    {
      "inputs": [
        {
          "internalType": "enum VyperOTC.Sides",
          "name": "side",
          "type": "uint8"
        }
      ],
      "name": "deposit",
      "outputs": [],
      "stateMutability": "nonpayable",
      "type": "function"
    },
    {
      "inputs": [],
      "name": "depositEnd",
      "outputs": [
        {
          "internalType": "uint256",
          "name": "",
          "type": "uint256"
        }
      ],
      "stateMutability": "view",
      "type": "function"
    },
    {
      "inputs": [],
      "name": "depositStart",
      "outputs": [
        {
          "internalType": "uint256",
          "name": "",
          "type": "uint256"
        }
      ],
      "stateMutability": "view",
      "type": "function"
    },
    {
      "inputs": [
        {
          "internalType": "uint256",
          "name": "id",
          "type": "uint256"
        }
      ],
      "name": "exists",
      "outputs": [
        {
          "internalType": "bool",
          "name": "",
          "type": "bool"
        }
      ],
      "stateMutability": "view",
      "type": "function"
    },
    {
      "inputs": [
        {
          "internalType": "address",
          "name": "account",
          "type": "address"
        },
        {
          "internalType": "address",
          "name": "operator",
          "type": "address"
        }
      ],
      "name": "isApprovedForAll",
      "outputs": [
        {
          "internalType": "bool",
          "name": "",
          "type": "bool"
        }
      ],
      "stateMutability": "view",
      "type": "function"
    },
    {
      "inputs": [],
      "name": "payoff",
      "outputs": [
        {
          "internalType": "contract IPayoffPlugin",
          "name": "",
          "type": "address"
        }
      ],
      "stateMutability": "view",
      "type": "function"
    },
    {
      "inputs": [
        {
          "internalType": "enum VyperOTC.Sides",
          "name": "",
          "type": "uint8"
        }
      ],
      "name": "pnl",
      "outputs": [
        {
          "internalType": "uint256",
          "name": "",
          "type": "uint256"
        }
      ],
      "stateMutability": "view",
      "type": "function"
    },
    {
      "inputs": [
        {
          "internalType": "enum VyperOTC.Sides",
          "name": "_side",
          "type": "uint8"
        }
      ],
      "name": "pnlOf",
      "outputs": [
        {
          "internalType": "uint256",
          "name": "",
          "type": "uint256"
        }
      ],
      "stateMutability": "view",
      "type": "function"
    },
    {
      "inputs": [
        {
          "internalType": "enum VyperOTC.Sides",
          "name": "",
          "type": "uint8"
        }
      ],
      "name": "requiredAmount",
      "outputs": [
        {
          "internalType": "uint256",
          "name": "",
          "type": "uint256"
        }
      ],
      "stateMutability": "view",
      "type": "function"
    },
    {
      "inputs": [
        {
          "internalType": "address",
          "name": "from",
          "type": "address"
        },
        {
          "internalType": "address",
          "name": "to",
          "type": "address"
        },
        {
          "internalType": "uint256[]",
          "name": "ids",
          "type": "uint256[]"
        },
        {
          "internalType": "uint256[]",
          "name": "amounts",
          "type": "uint256[]"
        },
        {
          "internalType": "bytes",
          "name": "data",
          "type": "bytes"
        }
      ],
      "name": "safeBatchTransferFrom",
      "outputs": [],
      "stateMutability": "nonpayable",
      "type": "function"
    },
    {
      "inputs": [
        {
          "internalType": "address",
          "name": "from",
          "type": "address"
        },
        {
          "internalType": "address",
          "name": "to",
          "type": "address"
        },
        {
          "internalType": "uint256",
          "name": "id",
          "type": "uint256"
        },
        {
          "internalType": "uint256",
          "name": "amount",
          "type": "uint256"
        },
        {
          "internalType": "bytes",
          "name": "data",
          "type": "bytes"
        }
      ],
      "name": "safeTransferFrom",
      "outputs": [],
      "stateMutability": "nonpayable",
      "type": "function"
    },
    {
      "inputs": [
        {
          "internalType": "address",
          "name": "operator",
          "type": "address"
        },
        {
          "internalType": "bool",
          "name": "approved",
          "type": "bool"
        }
      ],
      "name": "setApprovalForAll",
      "outputs": [],
      "stateMutability": "nonpayable",
      "type": "function"
    },
    {
      "inputs": [],
      "name": "settle",
      "outputs": [],
      "stateMutability": "nonpayable",
      "type": "function"
    },
    {
      "inputs": [],
      "name": "settleExecuted",
      "outputs": [
        {
          "internalType": "bool",
          "name": "",
          "type": "bool"
        }
      ],
      "stateMutability": "view",
      "type": "function"
    },
    {
      "inputs": [],
      "name": "settleStart",
      "outputs": [
        {
          "internalType": "uint256",
          "name": "",
          "type": "uint256"
        }
      ],
      "stateMutability": "view",
      "type": "function"
    },
    {
      "inputs": [
        {
          "internalType": "bytes4",
          "name": "interfaceId",
          "type": "bytes4"
        }
      ],
      "name": "supportsInterface",
      "outputs": [
        {
          "internalType": "bool",
          "name": "",
          "type": "bool"
        }
      ],
      "stateMutability": "view",
      "type": "function"
    },
    {
      "inputs": [
        {
          "internalType": "uint256",
          "name": "id",
          "type": "uint256"
        }
      ],
      "name": "totalSupply",
      "outputs": [
        {
          "internalType": "uint256",
          "name": "",
          "type": "uint256"
        }
      ],
      "stateMutability": "view",
      "type": "function"
    },
    {
      "inputs": [
        {
          "internalType": "uint256",
          "name": "",
          "type": "uint256"
        }
      ],
      "name": "uri",
      "outputs": [
        {
          "internalType": "string",
          "name": "",
          "type": "string"
        }
      ],
      "stateMutability": "view",
      "type": "function"
    }
  ],
  "bytecode": "0x6101206040526006805460ff191690553480156200001c57600080fd5b5060405162002875380380620028758339810160408190526200003f9162000152565b604080516020810190915260008152620000598162000127565b5042851080156200006957508342105b620000ae5760405162461bcd60e51b815260206004820152601160248201527019195c1bdcda5d081a5cc818db1bdcd959607a1b604482015260640160405180910390fd5b6001600160a01b039687166080529490951660a05260c09290925260e0526101005260046020527f17ef568e3e12ab5b9c7254a8d58478811de00f9e6eb34345acd53bf8fd09d3ec9190915560016000527fabd6e7cb50984ff9c2f3e18a2660c3353dadf4e3291deeb275dae2cd1e44fe05556200032f565b600262000135828262000263565b5050565b6001600160a01b03811681146200014f57600080fd5b50565b600080600080600080600060e0888a0312156200016e57600080fd5b87516200017b8162000139565b60208901519097506200018e8162000139565b604089015160608a015160808b015160a08c015160c0909c01519a9d939c50919a90999198509650945092505050565b634e487b7160e01b600052604160045260246000fd5b600181811c90821680620001e957607f821691505b6020821081036200020a57634e487b7160e01b600052602260045260246000fd5b50919050565b601f8211156200025e57600081815260208120601f850160051c81016020861015620002395750805b601f850160051c820191505b818110156200025a5782815560010162000245565b5050505b505050565b81516001600160401b038111156200027f576200027f620001be565b6200029781620002908454620001d4565b8462000210565b602080601f831160018114620002cf5760008415620002b65750858301515b600019600386901b1c1916600185901b1785556200025a565b600085815260208120601f198616915b828110156200030057888601518255948401946001909101908401620002df565b50858210156200031f5787850151600019600388901b60f8161c191681555b5050505050600190811b01905550565b60805160a05160c05160e051610100516124d0620003a5600039600081816101f101526105940152600081816102a10152610d1e01526000818161032f0152610cf5015260008181610262015261077f01526000818161030801528181610af801528181610bd30152610dcd01526124d06000f3fe608060405234801561001057600080fd5b50600436106101415760003560e01c806399b6f607116100b8578063d9c146de1161007c578063d9c146de1461032a578063e0f5073114610351578063e985e9c514610371578063ebe41b73146103ad578063f242432a146103c0578063f4a097a3146103d357600080fd5b806399b6f6071461029c578063a22cb465146102c3578063bd85b039146102d6578063c7838be0146102f6578063d8dfeb451461030357600080fd5b806335c49adc1161010a57806335c49adc146101cc57806336d80e18146101ec5780634e1273f4146102135780634e71d92d146102335780634f558e791461023b57806395fcd8361461025d57600080fd5b8062fdd58e1461014657806301ffc9a71461016c5780630e89341c1461018f57806311da60b4146101af5780632eb2c2d6146101b9575b600080fd5b610159610154366004611bc9565b6103e6565b6040519081526020015b60405180910390f35b61017f61017a366004611c09565b61047f565b6040519015158152602001610163565b6101a261019d366004611c2d565b6104cf565b6040516101639190611c8c565b6101b7610563565b005b6101b76101c7366004611deb565b6108d6565b6101596101da366004611e95565b60046020526000908152604090205481565b6101597f000000000000000000000000000000000000000000000000000000000000000081565b610226610221366004611eb6565b610922565b6040516101639190611fbc565b6101b7610a4c565b61017f610249366004611c2d565b600090815260036020526040902054151590565b6102847f000000000000000000000000000000000000000000000000000000000000000081565b6040516001600160a01b039091168152602001610163565b6101597f000000000000000000000000000000000000000000000000000000000000000081565b6101b76102d1366004611fdd565b610cb7565b6101596102e4366004611c2d565b60009081526003602052604090205490565b60065461017f9060ff1681565b6102847f000000000000000000000000000000000000000000000000000000000000000081565b6101597f000000000000000000000000000000000000000000000000000000000000000081565b61015961035f366004611e95565b60056020526000908152604090205481565b61017f61037f366004612014565b6001600160a01b03918216600090815260016020908152604080832093909416825291909152205460ff1690565b6101b76103bb366004611e95565b610cc2565b6101b76103ce366004612047565b610ede565b6101596103e1366004611e95565b610f23565b60006001600160a01b0383166104565760405162461bcd60e51b815260206004820152602a60248201527f455243313135353a2061646472657373207a65726f206973206e6f742061207660448201526930b634b21037bbb732b960b11b60648201526084015b60405180910390fd5b506000818152602081815260408083206001600160a01b03861684529091529020545b92915050565b60006001600160e01b03198216636cdb3d1360e11b14806104b057506001600160e01b031982166303a24d0760e21b145b8061047957506301ffc9a760e01b6001600160e01b0319831614610479565b6060600280546104de906120ac565b80601f016020809104026020016040519081016040528092919081815260200182805461050a906120ac565b80156105575780601f1061052c57610100808354040283529160200191610557565b820191906000526020600020905b81548152906001019060200180831161053a57829003601f168201915b50505050509050919050565b6105926040518060400160405280600e81526020016d1cd95d1d1b19481a5b9d9bdad95960921b815250610f62565b7f000000000000000000000000000000000000000000000000000000000000000042116106015760405162461bcd60e51b815260206004820152601860248201527f736574746c65206e6f7420617661696c61626c65207965740000000000000000604482015260640161044d565b60056020527f1471eb6eb2c5e789fc3de43f8ce62938c7d1836ec861730447e2ada8fd81017b54600080527f05b8ccbb9d4d8fb16ea74ce3c29a41f1b461fbdaff4714a0d9a8eb05499746bc546106589190612112565b156106a55760405162461bcd60e51b815260206004820152601760248201527f736574746c6520616c7265616479206578656375746564000000000000000000604482015260640161044d565b6106af6000610fa5565b80156106c057506106c06001610fa5565b61070c5760405162461bcd60e51b815260206004820152601e60248201527f6174206c65617374206f6e652073696465206973206e6f742074616b656e0000604482015260640161044d565b600460208190527f17ef568e3e12ab5b9c7254a8d58478811de00f9e6eb34345acd53bf8fd09d3ec5460016000527fabd6e7cb50984ff9c2f3e18a2660c3353dadf4e3291deeb275dae2cd1e44fe0554604051632b00f57560e11b81529283019190915260248201526001600160a01b037f00000000000000000000000000000000000000000000000000000000000000001690635601eaea906044016040805180830381865afa1580156107c5573d6000803e3d6000fd5b505050506040513d601f19601f820116820180604052508101906107e99190612125565b60056020818152600160009081527f1471eb6eb2c5e789fc3de43f8ce62938c7d1836ec861730447e2ada8fd81017b939093557f05b8ccbb9d4d8fb16ea74ce3c29a41f1b461fbdaff4714a0d9a8eb05499746bc9390935560408051808201909152600d81526c2b206c6f6e67506e6c3a20257360981b938101939093526108939291805b600181111561087f5761087f6120e6565b815260200190815260200160002054610fbc565b60408051808201909152600e81526d2b2073686f7274506e6c3a20257360901b60208201526108c79060056000600161086e565b6006805460ff19166001179055565b6001600160a01b0385163314806108f257506108f2853361037f565b61090e5760405162461bcd60e51b815260040161044d90612149565b61091b8585858585611001565b5050505050565b606081518351146109875760405162461bcd60e51b815260206004820152602960248201527f455243313135353a206163636f756e747320616e6420696473206c656e677468604482015268040dad2e6dac2e8c6d60bb1b606482015260840161044d565b6000835167ffffffffffffffff8111156109a3576109a3611c9f565b6040519080825280602002602001820160405280156109cc578160200160208202803683370190505b50905060005b8451811015610a4457610a178582815181106109f0576109f0612197565b6020026020010151858381518110610a0a57610a0a612197565b60200260200101516103e6565b828281518110610a2957610a29612197565b6020908102919091010152610a3d816121ad565b90506109d2565b509392505050565b610a7a6040518060400160405280600d81526020016c18db185a5b481a5b9d9bdad959609a1b815250610f62565b60065460ff16610acc5760405162461bcd60e51b815260206004820152601760248201527f736574746c65206e6f7420657865637574656420796574000000000000000000604482015260640161044d565b6000610ad7336111ec565b9050610af633826001811115610aef57610aef6120e6565b6001611298565b7f00000000000000000000000000000000000000000000000000000000000000006001600160a01b031663095ea7b33060056000856001811115610b3c57610b3c6120e6565b6001811115610b4d57610b4d6120e6565b8152602001908152602001600020546040518363ffffffff1660e01b8152600401610b8d9291906001600160a01b03929092168252602082015260400190565b6020604051808303816000875af1158015610bac573d6000803e3d6000fd5b505050506040513d601f19601f82011682018060405250810190610bd091906121c6565b507f00000000000000000000000000000000000000000000000000000000000000006001600160a01b03166323b872dd303360056000866001811115610c1857610c186120e6565b6001811115610c2957610c296120e6565b8152602081019190915260409081016000205490516001600160e01b031960e086901b1681526001600160a01b03938416600482015292909116602483015260448201526064016020604051808303816000875af1158015610c8f573d6000803e3d6000fd5b505050506040513d601f19601f82011682018060405250810190610cb391906121c6565b5050565b610cb333838361142d565b610cf26040518060400160405280600f81526020016e19195c1bdcda5d081a5b9d9bdad959608a1b815250610f62565b427f0000000000000000000000000000000000000000000000000000000000000000108015610d4057507f000000000000000000000000000000000000000000000000000000000000000042105b610d805760405162461bcd60e51b815260206004820152601160248201527019195c1bdcda5d081a5cc818db1bdcd959607a1b604482015260640161044d565b610d8981610fa5565b15610dcb5760405162461bcd60e51b815260206004820152601260248201527139b4b2329030b63932b0b23c903a30b5b2b760711b604482015260640161044d565b7f00000000000000000000000000000000000000000000000000000000000000006001600160a01b03166323b872dd333060046000866001811115610e1257610e126120e6565b6001811115610e2357610e236120e6565b8152602081019190915260409081016000205490516001600160e01b031960e086901b1681526001600160a01b03938416600482015292909116602483015260448201526064016020604051808303816000875af1158015610e89573d6000803e3d6000fd5b505050506040513d601f19601f82011682018060405250810190610ead91906121c6565b50610edb33826001811115610ec457610ec46120e6565b60016040518060200160405280600081525061150d565b50565b6001600160a01b038516331480610efa5750610efa853361037f565b610f165760405162461bcd60e51b815260040161044d90612149565b61091b8585858585611627565b600060056000836001811115610f3b57610f3b6120e6565b6001811115610f4c57610f4c6120e6565b8152602001908152602001600020549050919050565b610edb81604051602401610f769190611c8c565b60408051601f198184030181529190526020810180516001600160e01b031663104c13eb60e21b17905261175f565b6000610479826001811115610249576102496120e6565b610cb38282604051602401610fd29291906121e3565b60408051601f198184030181529190526020810180516001600160e01b0316632d839cb360e21b17905261175f565b81518351146110635760405162461bcd60e51b815260206004820152602860248201527f455243313135353a2069647320616e6420616d6f756e7473206c656e677468206044820152670dad2e6dac2e8c6d60c31b606482015260840161044d565b6001600160a01b0384166110895760405162461bcd60e51b815260040161044d90612205565b33611098818787878787611780565b60005b845181101561117e5760008582815181106110b8576110b8612197565b6020026020010151905060008583815181106110d6576110d6612197565b602090810291909101810151600084815280835260408082206001600160a01b038e1683529093529190912054909150818110156111265760405162461bcd60e51b815260040161044d9061224a565b6000838152602081815260408083206001600160a01b038e8116855292528083208585039055908b16825281208054849290611163908490612112565b9250508190555050505080611177906121ad565b905061109b565b50846001600160a01b0316866001600160a01b0316826001600160a01b03167f4a39dc06d4c0dbc64b70af90fd698a233a518aa5d07e595d983b8c0526c8f7fb87876040516111ce929190612294565b60405180910390a46111e481878787878761178e565b505050505050565b60006111f882826103e6565b60010361120757506000919050565b6112128260016103e6565b60010361122157506001919050565b6112606040518060400160405280601c81526020017f6e6f20736964652074616b656e20666f72206163636f756e7420257300000000815250836118e9565b60405162461bcd60e51b815260206004820152600d60248201526c37379039b4b232903a30b5b2b760991b604482015260640161044d565b6001600160a01b0383166112fa5760405162461bcd60e51b815260206004820152602360248201527f455243313135353a206275726e2066726f6d20746865207a65726f206164647260448201526265737360e81b606482015260840161044d565b3360006113068461192e565b905060006113138461192e565b905061133383876000858560405180602001604052806000815250611780565b6000858152602081815260408083206001600160a01b038a168452909152902054848110156113b05760405162461bcd60e51b8152602060048201526024808201527f455243313135353a206275726e20616d6f756e7420657863656564732062616c604482015263616e636560e01b606482015260840161044d565b6000868152602081815260408083206001600160a01b038b81168086529184528285208a8703905582518b81529384018a90529092908816917fc3d58168c5ae7397731d063d5bbf3d657854427343f4c083240f7aacaa2d0f62910160405180910390a46040805160208101909152600090525b50505050505050565b816001600160a01b0316836001600160a01b0316036114a05760405162461bcd60e51b815260206004820152602960248201527f455243313135353a2073657474696e6720617070726f76616c20737461747573604482015268103337b91039b2b63360b91b606482015260840161044d565b6001600160a01b03838116600081815260016020908152604080832094871680845294825291829020805460ff191686151590811790915591519182527f17307eab39ab6107e8899845ad3d59bd9653f200f220920489ca2b5937696c31910160405180910390a3505050565b6001600160a01b03841661156d5760405162461bcd60e51b815260206004820152602160248201527f455243313135353a206d696e7420746f20746865207a65726f206164647265736044820152607360f81b606482015260840161044d565b3360006115798561192e565b905060006115868561192e565b905061159783600089858589611780565b6000868152602081815260408083206001600160a01b038b168452909152812080548792906115c7908490612112565b909155505060408051878152602081018790526001600160a01b03808a1692600092918716917fc3d58168c5ae7397731d063d5bbf3d657854427343f4c083240f7aacaa2d0f62910160405180910390a461142483600089898989611979565b6001600160a01b03841661164d5760405162461bcd60e51b815260040161044d90612205565b3360006116598561192e565b905060006116668561192e565b9050611676838989858589611780565b6000868152602081815260408083206001600160a01b038c168452909152902054858110156116b75760405162461bcd60e51b815260040161044d9061224a565b6000878152602081815260408083206001600160a01b038d8116855292528083208985039055908a168252812080548892906116f4908490612112565b909155505060408051888152602081018890526001600160a01b03808b16928c821692918816917fc3d58168c5ae7397731d063d5bbf3d657854427343f4c083240f7aacaa2d0f62910160405180910390a4611754848a8a8a8a8a611979565b505050505050505050565b80516a636f6e736f6c652e6c6f67602083016000808483855afa5050505050565b6111e4868686868686611a34565b6001600160a01b0384163b156111e45760405163bc197c8160e01b81526001600160a01b0385169063bc197c81906117d290899089908890889088906004016122c2565b6020604051808303816000875af192505050801561180d575060408051601f3d908101601f1916820190925261180a91810190612320565b60015b6118b95761181961233d565b806308c379a003611852575061182d612359565b806118385750611854565b8060405162461bcd60e51b815260040161044d9190611c8c565b505b60405162461bcd60e51b815260206004820152603460248201527f455243313135353a207472616e7366657220746f206e6f6e2d455243313135356044820152732932b1b2b4bb32b91034b6b83632b6b2b73a32b960611b606482015260840161044d565b6001600160e01b0319811663bc197c8160e01b146114245760405162461bcd60e51b815260040161044d906123e3565b610cb382826040516024016118ff92919061242b565b60408051601f198184030181529190526020810180516001600160e01b031663319af33360e01b17905261175f565b6040805160018082528183019092526060916000919060208083019080368337019050509050828160008151811061196857611968612197565b602090810291909101015292915050565b6001600160a01b0384163b156111e45760405163f23a6e6160e01b81526001600160a01b0385169063f23a6e61906119bd9089908990889088908890600401612455565b6020604051808303816000875af19250505080156119f8575060408051601f3d908101601f191682019092526119f591810190612320565b60015b611a045761181961233d565b6001600160e01b0319811663f23a6e6160e01b146114245760405162461bcd60e51b815260040161044d906123e3565b6001600160a01b038516611abb5760005b8351811015611ab957828181518110611a6057611a60612197565b602002602001015160036000868481518110611a7e57611a7e612197565b602002602001015181526020019081526020016000206000828254611aa39190612112565b90915550611ab29050816121ad565b9050611a45565b505b6001600160a01b0384166111e45760005b8351811015611424576000848281518110611ae957611ae9612197565b602002602001015190506000848381518110611b0757611b07612197565b6020026020010151905060006003600084815260200190815260200160002054905081811015611b8a5760405162461bcd60e51b815260206004820152602860248201527f455243313135353a206275726e20616d6f756e74206578636565647320746f74604482015267616c537570706c7960c01b606482015260840161044d565b60009283526003602052604090922091039055611ba6816121ad565b9050611acc565b80356001600160a01b0381168114611bc457600080fd5b919050565b60008060408385031215611bdc57600080fd5b611be583611bad565b946020939093013593505050565b6001600160e01b031981168114610edb57600080fd5b600060208284031215611c1b57600080fd5b8135611c2681611bf3565b9392505050565b600060208284031215611c3f57600080fd5b5035919050565b6000815180845260005b81811015611c6c57602081850181015186830182015201611c50565b506000602082860101526020601f19601f83011685010191505092915050565b602081526000611c266020830184611c46565b634e487b7160e01b600052604160045260246000fd5b601f8201601f1916810167ffffffffffffffff81118282101715611cdb57611cdb611c9f565b6040525050565b600067ffffffffffffffff821115611cfc57611cfc611c9f565b5060051b60200190565b600082601f830112611d1757600080fd5b81356020611d2482611ce2565b604051611d318282611cb5565b83815260059390931b8501820192828101915086841115611d5157600080fd5b8286015b84811015611d6c5780358352918301918301611d55565b509695505050505050565b600082601f830112611d8857600080fd5b813567ffffffffffffffff811115611da257611da2611c9f565b604051611db9601f8301601f191660200182611cb5565b818152846020838601011115611dce57600080fd5b816020850160208301376000918101602001919091529392505050565b600080600080600060a08688031215611e0357600080fd5b611e0c86611bad565b9450611e1a60208701611bad565b9350604086013567ffffffffffffffff80821115611e3757600080fd5b611e4389838a01611d06565b94506060880135915080821115611e5957600080fd5b611e6589838a01611d06565b93506080880135915080821115611e7b57600080fd5b50611e8888828901611d77565b9150509295509295909350565b600060208284031215611ea757600080fd5b813560028110611c2657600080fd5b60008060408385031215611ec957600080fd5b823567ffffffffffffffff80821115611ee157600080fd5b818501915085601f830112611ef557600080fd5b81356020611f0282611ce2565b604051611f0f8282611cb5565b83815260059390931b8501820192828101915089841115611f2f57600080fd5b948201945b83861015611f5457611f4586611bad565b82529482019490820190611f34565b96505086013592505080821115611f6a57600080fd5b50611f7785828601611d06565b9150509250929050565b600081518084526020808501945080840160005b83811015611fb157815187529582019590820190600101611f95565b509495945050505050565b602081526000611c266020830184611f81565b8015158114610edb57600080fd5b60008060408385031215611ff057600080fd5b611ff983611bad565b9150602083013561200981611fcf565b809150509250929050565b6000806040838503121561202757600080fd5b61203083611bad565b915061203e60208401611bad565b90509250929050565b600080600080600060a0868803121561205f57600080fd5b61206886611bad565b945061207660208701611bad565b93506040860135925060608601359150608086013567ffffffffffffffff8111156120a057600080fd5b611e8888828901611d77565b600181811c908216806120c057607f821691505b6020821081036120e057634e487b7160e01b600052602260045260246000fd5b50919050565b634e487b7160e01b600052602160045260246000fd5b634e487b7160e01b600052601160045260246000fd5b80820180821115610479576104796120fc565b6000806040838503121561213857600080fd5b505080516020909101519092909150565b6020808252602e908201527f455243313135353a2063616c6c6572206973206e6f7420746f6b656e206f776e60408201526d195c881bdc88185c1c1c9bdd995960921b606082015260800190565b634e487b7160e01b600052603260045260246000fd5b6000600182016121bf576121bf6120fc565b5060010190565b6000602082840312156121d857600080fd5b8151611c2681611fcf565b6040815260006121f66040830185611c46565b90508260208301529392505050565b60208082526025908201527f455243313135353a207472616e7366657220746f20746865207a65726f206164604082015264647265737360d81b606082015260800190565b6020808252602a908201527f455243313135353a20696e73756666696369656e742062616c616e636520666f60408201526939103a3930b739b332b960b11b606082015260800190565b6040815260006122a76040830185611f81565b82810360208401526122b98185611f81565b95945050505050565b6001600160a01b0386811682528516602082015260a0604082018190526000906122ee90830186611f81565b82810360608401526123008186611f81565b905082810360808401526123148185611c46565b98975050505050505050565b60006020828403121561233257600080fd5b8151611c2681611bf3565b600060033d11156123565760046000803e5060005160e01c5b90565b600060443d10156123675790565b6040516003193d81016004833e81513d67ffffffffffffffff816024840111818411171561239757505050505090565b82850191508151818111156123af5750505050505090565b843d87010160208285010111156123c95750505050505090565b6123d860208286010187611cb5565b509095945050505050565b60208082526028908201527f455243313135353a204552433131353552656365697665722072656a656374656040820152676420746f6b656e7360c01b606082015260800190565b60408152600061243e6040830185611c46565b905060018060a01b03831660208301529392505050565b6001600160a01b03868116825285166020820152604081018490526060810183905260a06080820181905260009061248f90830184611c46565b97965050505050505056fea264697066735822122073ab8b156c2066eadad186dd909b13dcd9ffb4f84ffae36e1f5afb70aab8356264736f6c63430008110033",
  "linkReferences": {},
  "deployedLinkReferences": {}
}